{
  "_format": "hh-sol-artifact-1",
  "contractName": "WavePortal",
  "sourceName": "contracts/WavePortal.sol",
  "abi": [
    {
      "inputs": [],
      "stateMutability": "payable",
      "type": "constructor"
    },
    {
      "anonymous": false,
      "inputs": [
        {
          "indexed": true,
          "internalType": "address",
          "name": "from",
          "type": "address"
        },
        {
          "indexed": false,
          "internalType": "uint256",
          "name": "timestamp",
          "type": "uint256"
        },
        {
          "indexed": false,
          "internalType": "string",
          "name": "message",
          "type": "string"
        }
      ],
      "name": "NewWave",
      "type": "event"
    },
    {
      "inputs": [],
      "name": "getAllWaves",
      "outputs": [
        {
          "components": [
            {
              "internalType": "address",
              "name": "waver",
              "type": "address"
            },
            {
              "internalType": "string",
              "name": "message",
              "type": "string"
            },
            {
              "internalType": "uint256",
              "name": "timestamp",
              "type": "uint256"
            }
          ],
          "internalType": "struct WavePortal.Wave[]",
          "name": "",
          "type": "tuple[]"
        }
      ],
      "stateMutability": "view",
      "type": "function"
    },
    {
      "inputs": [],
      "name": "getTotalWaves",
      "outputs": [
        {
          "internalType": "uint256",
          "name": "",
          "type": "uint256"
        }
      ],
      "stateMutability": "view",
      "type": "function"
    },
    {
      "inputs": [
        {
          "internalType": "address",
          "name": "",
          "type": "address"
        }
      ],
      "name": "lastWavedAt",
      "outputs": [
        {
          "internalType": "uint256",
          "name": "",
          "type": "uint256"
        }
      ],
      "stateMutability": "view",
      "type": "function"
    },
    {
      "inputs": [],
      "name": "result",
      "outputs": [
        {
          "internalType": "bool",
          "name": "",
          "type": "bool"
        }
      ],
      "stateMutability": "view",
      "type": "function"
    },
    {
      "inputs": [
        {
          "internalType": "string",
          "name": "_message",
          "type": "string"
        }
      ],
      "name": "wave",
      "outputs": [],
      "stateMutability": "nonpayable",
      "type": "function"
    }
  ],
  "bytecode": "0x608060405260008060006101000a81548160ff021916908315150217905550620000696040518060400160405280601981526020017f57652068617665206265656e20636f6e737472756374656421000000000000008152506200009160201b620006761760201c565b6064444262000079919062000196565b62000085919062000200565b600281905550620002f6565b6200013181604051602401620000a89190620002d2565b6040516020818303038152906040527f41304fac000000000000000000000000000000000000000000000000000000007bffffffffffffffffffffffffffffffffffffffffffffffffffffffff19166020820180517bffffffffffffffffffffffffffffffffffffffffffffffffffffffff83818316178352505050506200013460201b60201c565b50565b60008151905060006a636f6e736f6c652e6c6f679050602083016000808483855afa5050505050565b6000819050919050565b7f4e487b7100000000000000000000000000000000000000000000000000000000600052601160045260246000fd5b6000620001a3826200015d565b9150620001b0836200015d565b9250828201905080821115620001cb57620001ca62000167565b5b92915050565b7f4e487b7100000000000000000000000000000000000000000000000000000000600052601260045260246000fd5b60006200020d826200015d565b91506200021a836200015d565b9250826200022d576200022c620001d1565b5b828206905092915050565b600081519050919050565b600082825260208201905092915050565b60005b838110156200027457808201518184015260208101905062000257565b60008484015250505050565b6000601f19601f8301169050919050565b60006200029e8262000238565b620002aa818562000243565b9350620002bc81856020860162000254565b620002c78162000280565b840191505092915050565b60006020820190508181036000830152620002ee818462000291565b905092915050565b6112c580620003066000396000f3fe608060405234801561001057600080fd5b50600436106100575760003560e01c8063449d46c01461005c57806365372147146100785780639a2cdc0814610096578063a42a4663146100b4578063bd43a908146100e4575b600080fd5b6100766004803603810190610071919061092e565b610102565b005b6100806104ed565b60405161008d9190610992565b60405180910390f35b61009e610503565b6040516100ab91906109c6565b60405180910390f35b6100ce60048036038101906100c99190610a3f565b61050d565b6040516100db91906109c6565b60405180910390f35b6100ec610525565b6040516100f99190610c1b565b60405180910390f35b42600f600460003373ffffffffffffffffffffffffffffffffffffffff1673ffffffffffffffffffffffffffffffffffffffff1681526020019081526020016000205461014f9190610c6c565b1061018f576040517f08c379a000000000000000000000000000000000000000000000000000000000815260040161018690610cfd565b60405180910390fd5b42600460003373ffffffffffffffffffffffffffffffffffffffff1673ffffffffffffffffffffffffffffffffffffffff1681526020019081526020016000208190555060018060008282546101e59190610c6c565b9250508190555061022b6040518060400160405280600d81526020017f25732068617320776176656421000000000000000000000000000000000000008152503361070f565b600360405180606001604052803373ffffffffffffffffffffffffffffffffffffffff16815260200183815260200142815250908060018154018082558091505060019003906000526020600020906003020160009091909190915060008201518160000160006101000a81548173ffffffffffffffffffffffffffffffffffffffff021916908373ffffffffffffffffffffffffffffffffffffffff16021790555060208201518160010190816102e39190610f29565b50604082015181600201555050606460025442446103019190610c6c565b61030b9190610c6c565b610315919061102a565b60028190555060326002541161047f576103646040518060400160405280600781526020017f257320776f6e21000000000000000000000000000000000000000000000000008152503361070f565b60016000806101000a81548160ff0219169083151502179055506000655af3107a40009050478111156103cc576040517f08c379a00000000000000000000000000000000000000000000000000000000081526004016103c3906110cd565b60405180910390fd5b60003373ffffffffffffffffffffffffffffffffffffffff16826040516103f29061111e565b60006040518083038185875af1925050503d806000811461042f576040519150601f19603f3d011682016040523d82523d6000602084013e610434565b606091505b5050905080610478576040517f08c379a000000000000000000000000000000000000000000000000000000000815260040161046f906111a5565b60405180910390fd5b505061049a565b60008060006101000a81548160ff0219169083151502179055505b3373ffffffffffffffffffffffffffffffffffffffff167f5f7e16dc676677766a70e9c5628aa6c54ddb8b6e5188e2ae1e1f17f1ffbea71642836040516104e29291906111fe565b60405180910390a250565b60008060009054906101000a900460ff16905090565b6000600154905090565b60046020528060005260406000206000915090505481565b60606003805480602002602001604051908101604052809291908181526020016000905b8282101561066d57838290600052602060002090600302016040518060600160405290816000820160009054906101000a900473ffffffffffffffffffffffffffffffffffffffff1673ffffffffffffffffffffffffffffffffffffffff1673ffffffffffffffffffffffffffffffffffffffff1681526020016001820180546105d290610d4c565b80601f01602080910402602001604051908101604052809291908181526020018280546105fe90610d4c565b801561064b5780601f106106205761010080835404028352916020019161064b565b820191906000526020600020905b81548152906001019060200180831161062e57829003601f168201915b5050505050815260200160028201548152505081526020019060010190610549565b50505050905090565b61070c8160405160240161068a919061122e565b6040516020818303038152906040527f41304fac000000000000000000000000000000000000000000000000000000007bffffffffffffffffffffffffffffffffffffffffffffffffffffffff19166020820180517bffffffffffffffffffffffffffffffffffffffffffffffffffffffff83818316178352505050506107ab565b50565b6107a7828260405160240161072592919061125f565b6040516020818303038152906040527f319af333000000000000000000000000000000000000000000000000000000007bffffffffffffffffffffffffffffffffffffffffffffffffffffffff19166020820180517bffffffffffffffffffffffffffffffffffffffffffffffffffffffff83818316178352505050506107ab565b5050565b60008151905060006a636f6e736f6c652e6c6f679050602083016000808483855afa5050505050565b6000604051905090565b600080fd5b600080fd5b600080fd5b600080fd5b6000601f19601f8301169050919050565b7f4e487b7100000000000000000000000000000000000000000000000000000000600052604160045260246000fd5b61083b826107f2565b810181811067ffffffffffffffff8211171561085a57610859610803565b5b80604052505050565b600061086d6107d4565b90506108798282610832565b919050565b600067ffffffffffffffff82111561089957610898610803565b5b6108a2826107f2565b9050602081019050919050565b82818337600083830152505050565b60006108d16108cc8461087e565b610863565b9050828152602081018484840111156108ed576108ec6107ed565b5b6108f88482856108af565b509392505050565b600082601f830112610915576109146107e8565b5b81356109258482602086016108be565b91505092915050565b600060208284031215610944576109436107de565b5b600082013567ffffffffffffffff811115610962576109616107e3565b5b61096e84828501610900565b91505092915050565b60008115159050919050565b61098c81610977565b82525050565b60006020820190506109a76000830184610983565b92915050565b6000819050919050565b6109c0816109ad565b82525050565b60006020820190506109db60008301846109b7565b92915050565b600073ffffffffffffffffffffffffffffffffffffffff82169050919050565b6000610a0c826109e1565b9050919050565b610a1c81610a01565b8114610a2757600080fd5b50565b600081359050610a3981610a13565b92915050565b600060208284031215610a5557610a546107de565b5b6000610a6384828501610a2a565b91505092915050565b600081519050919050565b600082825260208201905092915050565b6000819050602082019050919050565b610aa181610a01565b82525050565b600081519050919050565b600082825260208201905092915050565b60005b83811015610ae1578082015181840152602081019050610ac6565b60008484015250505050565b6000610af882610aa7565b610b028185610ab2565b9350610b12818560208601610ac3565b610b1b816107f2565b840191505092915050565b610b2f816109ad565b82525050565b6000606083016000830151610b4d6000860182610a98565b5060208301518482036020860152610b658282610aed565b9150506040830151610b7a6040860182610b26565b508091505092915050565b6000610b918383610b35565b905092915050565b6000602082019050919050565b6000610bb182610a6c565b610bbb8185610a77565b935083602082028501610bcd85610a88565b8060005b85811015610c095784840389528151610bea8582610b85565b9450610bf583610b99565b925060208a01995050600181019050610bd1565b50829750879550505050505092915050565b60006020820190508181036000830152610c358184610ba6565b905092915050565b7f4e487b7100000000000000000000000000000000000000000000000000000000600052601160045260246000fd5b6000610c77826109ad565b9150610c82836109ad565b9250828201905080821115610c9a57610c99610c3d565b5b92915050565b600082825260208201905092915050565b7f576169742031356d000000000000000000000000000000000000000000000000600082015250565b6000610ce7600883610ca0565b9150610cf282610cb1565b602082019050919050565b60006020820190508181036000830152610d1681610cda565b9050919050565b7f4e487b7100000000000000000000000000000000000000000000000000000000600052602260045260246000fd5b60006002820490506001821680610d6457607f821691505b602082108103610d7757610d76610d1d565b5b50919050565b60008190508160005260206000209050919050565b60006020601f8301049050919050565b600082821b905092915050565b600060088302610ddf7fffffffffffffffffffffffffffffffffffffffffffffffffffffffffffffffff82610da2565b610de98683610da2565b95508019841693508086168417925050509392505050565b6000819050919050565b6000610e26610e21610e1c846109ad565b610e01565b6109ad565b9050919050565b6000819050919050565b610e4083610e0b565b610e54610e4c82610e2d565b848454610daf565b825550505050565b600090565b610e69610e5c565b610e74818484610e37565b505050565b5b81811015610e9857610e8d600082610e61565b600181019050610e7a565b5050565b601f821115610edd57610eae81610d7d565b610eb784610d92565b81016020851015610ec6578190505b610eda610ed285610d92565b830182610e79565b50505b505050565b600082821c905092915050565b6000610f0060001984600802610ee2565b1980831691505092915050565b6000610f198383610eef565b9150826002028217905092915050565b610f3282610aa7565b67ffffffffffffffff811115610f4b57610f4a610803565b5b610f558254610d4c565b610f60828285610e9c565b600060209050601f831160018114610f935760008415610f81578287015190505b610f8b8582610f0d565b865550610ff3565b601f198416610fa186610d7d565b60005b82811015610fc957848901518255600182019150602085019450602081019050610fa4565b86831015610fe65784890151610fe2601f891682610eef565b8355505b6001600288020188555050505b505050505050565b7f4e487b7100000000000000000000000000000000000000000000000000000000600052601260045260246000fd5b6000611035826109ad565b9150611040836109ad565b9250826110505761104f610ffb565b5b828206905092915050565b7f547279696e6720746f207769746864726177206d6f7265206d6f6e657920746860008201527f616e207468657920636f6e7472616374206861732e0000000000000000000000602082015250565b60006110b7603583610ca0565b91506110c28261105b565b604082019050919050565b600060208201905081810360008301526110e6816110aa565b9050919050565b600081905092915050565b50565b60006111086000836110ed565b9150611113826110f8565b600082019050919050565b6000611129826110fb565b9150819050919050565b7f4661696c656420746f207769746864726177206d6f6e65792066726f6d20636f60008201527f6e74726163742e00000000000000000000000000000000000000000000000000602082015250565b600061118f602783610ca0565b915061119a82611133565b604082019050919050565b600060208201905081810360008301526111be81611182565b9050919050565b60006111d082610aa7565b6111da8185610ca0565b93506111ea818560208601610ac3565b6111f3816107f2565b840191505092915050565b600060408201905061121360008301856109b7565b818103602083015261122581846111c5565b90509392505050565b6000602082019050818103600083015261124881846111c5565b905092915050565b61125981610a01565b82525050565b6000604082019050818103600083015261127981856111c5565b90506112886020830184611250565b939250505056fea264697066735822122020b3cac56937ec0e2243c03f311993c6ec69e46c2e92236811e060edd118603b64736f6c63430008110033",
  "linkReferences": {},
  "deployedLinkReferences": {}
}